{
  "contractName": "Ballot",
  "abi": [
    {
      "inputs": [
        {
          "internalType": "string[]",
          "name": "candidateNames",
          "type": "string[]"
        },
        {
          "internalType": "string[]",
          "name": "candidateParties",
          "type": "string[]"
        }
      ],
      "stateMutability": "nonpayable",
      "type": "constructor"
    },
    {
      "inputs": [
        {
          "internalType": "uint256",
          "name": "",
          "type": "uint256"
        }
      ],
      "name": "candidates",
      "outputs": [
        {
          "internalType": "string",
          "name": "name",
          "type": "string"
        },
        {
          "internalType": "string",
          "name": "party",
          "type": "string"
        },
        {
          "internalType": "uint256",
          "name": "voteCount",
          "type": "uint256"
        }
      ],
      "stateMutability": "view",
      "type": "function",
      "constant": true
    },
    {
      "inputs": [
        {
          "internalType": "uint256",
          "name": "index",
          "type": "uint256"
        }
      ],
      "name": "vote",
      "outputs": [],
      "stateMutability": "nonpayable",
      "type": "function"
    },
    {
      "inputs": [],
      "name": "getCandidateCount",
      "outputs": [
        {
          "internalType": "uint256",
          "name": "",
          "type": "uint256"
        }
      ],
      "stateMutability": "view",
      "type": "function",
      "constant": true
    }
  ],
  "bytecode": "0x60806040523480156200001157600080fd5b5060405162000c9438038062000c948339818101604052810190620000379190620004be565b80518251146200007e576040517f08c379a00000000000000000000000000000000000000000000000000000000081526004016200007590620005a4565b60405180910390fd5b60005b82518110156200016c5760006040518060600160405280858481518110620000ae57620000ad620005c6565b5b60200260200101518152602001848481518110620000d157620000d0620005c6565b5b602002602001015181526020016000815250908060018154018082558091505060019003906000526020600020906003020160009091909190915060008201518160000190805190602001906200012a92919062000175565b5060208201518160010190805190602001906200014992919062000175565b50604082015181600201555050808062000163906200062e565b91505062000081565b505050620006df565b8280546200018390620006aa565b90600052602060002090601f016020900481019282620001a75760008555620001f3565b82601f10620001c257805160ff1916838001178555620001f3565b82800160010185558215620001f3579182015b82811115620001f2578251825591602001919060010190620001d5565b5b50905062000202919062000206565b5090565b5b808211156200022157600081600090555060010162000207565b5090565b6000604051905090565b600080fd5b600080fd5b600080fd5b6000601f19601f8301169050919050565b7f4e487b7100000000000000000000000000000000000000000000000000000000600052604160045260246000fd5b62000289826200023e565b810181811067ffffffffffffffff82111715620002ab57620002aa6200024f565b5b80604052505050565b6000620002c062000225565b9050620002ce82826200027e565b919050565b600067ffffffffffffffff821115620002f157620002f06200024f565b5b602082029050602081019050919050565b600080fd5b600080fd5b600067ffffffffffffffff8211156200032a57620003296200024f565b5b62000335826200023e565b9050602081019050919050565b60005b838110156200036257808201518184015260208101905062000345565b8381111562000372576000848401525b50505050565b60006200038f62000389846200030c565b620002b4565b905082815260208101848484011115620003ae57620003ad62000307565b5b620003bb84828562000342565b509392505050565b600082601f830112620003db57620003da62000239565b5b8151620003ed84826020860162000378565b91505092915050565b60006200040d6200040784620002d3565b620002b4565b9050808382526020820190506020840283018581111562000433576200043262000302565b5b835b818110156200048157805167ffffffffffffffff8111156200045c576200045b62000239565b5b8086016200046b8982620003c3565b8552602085019450505060208101905062000435565b5050509392505050565b600082601f830112620004a357620004a262000239565b5b8151620004b5848260208601620003f6565b91505092915050565b60008060408385031215620004d857620004d76200022f565b5b600083015167ffffffffffffffff811115620004f957620004f862000234565b5b62000507858286016200048b565b925050602083015167ffffffffffffffff8111156200052b576200052a62000234565b5b62000539858286016200048b565b9150509250929050565b600082825260208201905092915050565b7f496e76616c696420696e70757400000000000000000000000000000000000000600082015250565b60006200058c600d8362000543565b9150620005998262000554565b602082019050919050565b60006020820190508181036000830152620005bf816200057d565b9050919050565b7f4e487b7100000000000000000000000000000000000000000000000000000000600052603260045260246000fd5b7f4e487b7100000000000000000000000000000000000000000000000000000000600052601160045260246000fd5b6000819050919050565b60006200063b8262000624565b91507fffffffffffffffffffffffffffffffffffffffffffffffffffffffffffffffff820362000670576200066f620005f5565b5b600182019050919050565b7f4e487b7100000000000000000000000000000000000000000000000000000000600052602260045260246000fd5b60006002820490506001821680620006c357607f821691505b602082108103620006d957620006d86200067b565b5b50919050565b6105a580620006ef6000396000f3fe608060405234801561001057600080fd5b50600436106100415760003560e01c80630121b93f1461004657806330a56347146100625780633477ee2e14610080575b600080fd5b610060600480360381019061005b91906102c8565b6100b2565b005b61006a610137565b6040516100779190610304565b60405180910390f35b61009a600480360381019061009591906102c8565b610143565b6040516100a9939291906103b8565b60405180910390f35b60008054905081106100f9576040517f08c379a00000000000000000000000000000000000000000000000000000000081526004016100f090610449565b60405180910390fd5b6000818154811061010d5761010c610469565b5b9060005260206000209060030201600201600081548092919061012f906104c7565b919050555050565b60008080549050905090565b6000818154811061015357600080fd5b90600052602060002090600302016000915090508060000180546101769061053e565b80601f01602080910402602001604051908101604052809291908181526020018280546101a29061053e565b80156101ef5780601f106101c4576101008083540402835291602001916101ef565b820191906000526020600020905b8154815290600101906020018083116101d257829003601f168201915b5050505050908060010180546102049061053e565b80601f01602080910402602001604051908101604052809291908181526020018280546102309061053e565b801561027d5780601f106102525761010080835404028352916020019161027d565b820191906000526020600020905b81548152906001019060200180831161026057829003601f168201915b5050505050908060020154905083565b600080fd5b6000819050919050565b6102a581610292565b81146102b057600080fd5b50565b6000813590506102c28161029c565b92915050565b6000602082840312156102de576102dd61028d565b5b60006102ec848285016102b3565b91505092915050565b6102fe81610292565b82525050565b600060208201905061031960008301846102f5565b92915050565b600081519050919050565b600082825260208201905092915050565b60005b8381101561035957808201518184015260208101905061033e565b83811115610368576000848401525b50505050565b6000601f19601f8301169050919050565b600061038a8261031f565b610394818561032a565b93506103a481856020860161033b565b6103ad8161036e565b840191505092915050565b600060608201905081810360008301526103d2818661037f565b905081810360208301526103e6818561037f565b90506103f560408301846102f5565b949350505050565b7f496e76616c69642063616e64696461746520696e646578000000000000000000600082015250565b600061043360178361032a565b915061043e826103fd565b602082019050919050565b6000602082019050818103600083015261046281610426565b9050919050565b7f4e487b7100000000000000000000000000000000000000000000000000000000600052603260045260246000fd5b7f4e487b7100000000000000000000000000000000000000000000000000000000600052601160045260246000fd5b60006104d282610292565b91507fffffffffffffffffffffffffffffffffffffffffffffffffffffffffffffffff820361050457610503610498565b5b600182019050919050565b7f4e487b7100000000000000000000000000000000000000000000000000000000600052602260045260246000fd5b6000600282049050600182168061055657607f821691505b6020821081036105695761056861050f565b5b5091905056fea26469706673582212207c126802f1c018b9c03f7e9705b5d3a7db41fbfee5d957a2dd518cc7a44084e064736f6c634300080d0033",
  "immutableReferences": {},
  "source": "// SPDX-License-Identifier: MIT\r\npragma solidity >=0.5.0 <0.9.0;\r\npragma experimental ABIEncoderV2;\r\n\r\n\r\n\r\ncontract Ballot {\r\n    // Struct to represent a candidate\r\n    struct Candidate {\r\n        string name;\r\n        string party;\r\n        uint voteCount;\r\n    }\r\n\r\n    // Array to store candidates\r\n    Candidate[] public candidates;\r\n\r\n    // Constructor to initialize the ballot with candidates\r\n    constructor(string[] memory candidateNames, string[] memory candidateParties) {\r\n        require(candidateNames.length == candidateParties.length, \"Invalid input\");\r\n\r\n        for (uint i = 0; i < candidateNames.length; i++) {\r\n            candidates.push(Candidate(candidateNames[i], candidateParties[i], 0));\r\n        }\r\n    }\r\n\r\n    // Function to vote for a candidate\r\n    function vote(uint index) public {\r\n        require(index < candidates.length, \"Invalid candidate index\");\r\n        candidates[index].voteCount++;\r\n    }\r\n\r\n    // Function to get the total number of candidates\r\n    function getCandidateCount() public view returns (uint) {\r\n        return candidates.length;\r\n    }\r\n}\r\n",
  "sourcePath": "D:\\miniprojectdappp\\contracts\\Ballot.sol",
  "compiler": {
    "name": "solc",
    "version": "0.8.13+commit.abaa5c0e.Emscripten.clang"
  },
  "schemaVersion": "3.4.16",
  "updatedAt": "2024-03-16T11:18:23.141Z",
  "networkType": "ethereum",
  "devdoc": {
    "kind": "dev",
    "methods": {},
    "version": 1
  },
  "userdoc": {
    "kind": "user",
    "methods": {},
    "version": 1
  }
}